:04000000CFEFFEF050
:020000040001F9
:10FD520001C01EF002C01FF003C020F0120001C05B
:10FD620024F002C025F003C026F0120001C021F0E9
:10FD720002C022F003C023F01200E4ECFEF0C5EC56
:10FD8200FEF004ECFFF01200600ED36E000E646E03
:10FD9200000E9B6E000E0F012A6F12002B6A2A6A58
:10FDA200296A286A276A000EF86E0001BCEFFFF08C
:10FDB200016E9EA8DFEFFEF0E1EFFEF0DAEFFEF05B
:10FDC20001C0ADFF1200000E8D6E000E8C6E000E93
:10FDD200896E000E8E6E000E8A6E000E8F6E000E01
:10FDE2008B6E000E906E9668FE0E976E92681F0ED6
:10FDF200986E93689968BF0E946E95680F01256995
:10FE0200246923691200480E656E900EAB6E240EB3
:10FE1200AC6E820EAF6E060ED46E000E016E000E38
:10FE2200026E000E036EB0ECFEF0000E016E000ECC
:10FE3200026E000E036EB7ECFEF0000E016E000EB5
:10FE4200026E000E036EA9ECFEF0000E276E120089
:10FE520003C009F004C00AF001C007F002C008F0B4
:10FE620043EFFFF009C0D9FF0AC0DAFFDF500B6E83
:10FE7200094A0A2A07C0D9FF08C0DAFF0BC0DFFF10
:10FE8200074A082A0506D8A00606052806E106281C
:10FE9200D8A44EEFFFF050EFFFF033EFFFF0120067
:10FEA200000E096E000E0A6E000E0B6E000E0C6E36
:10FEB20001A05EEFFFF060EFFFF068EFFFF005508A
:10FEC200092606500A2207500B2208500C22D8900D
:10FED2000536063607360836D89004320332023227
:10FEE20001320150021003100410D8A47BEFFFF07E
:10FEF2007DEFFFF059EFFFF009C001F00AC002F0F8
:10FF02000BC003F00CC004F0120028C001F029C09D
:10FF120002F02AC003F02BC004F02D0E056E7F0EF6
:10FF2200066E950E076E4C0E086E51ECFFF0010E38
:10FF32000124286E000E0220296E000E03202A6E74
:10FF4200000E04202B6E28C00FF029C010F02AC02A
:10FF520011F02BC012F0120EB4EFFFF0D890123253
:10FF6200113210320F32E82EAFEFFFF00FC00DF05A
:10FF720010C00EF01200BEECFEF01B2A000E1C6E2A
:10FF8200170E1C24D96EDA6A000EDA2286ECFFF014
:10FF92000D50DF6E1C2A030E1C64D2EFFFF0D4EF6B
:10FFA200FFF0C1EFFFF0130E016E000E026E170E8E
:10FFB200036E000E046E000E066E040E056E29EC32
:10FFC200FFF0030ED9ECFEF0000E1D6E130E1D2481
:10FFD200D96EDA6A000EDA22DF50D9ECFEF01D2A61
:10FFE200030E1D64F7EFFFF0F9EFFFF0E7EFFFF00C
:0EFFF200FC0ED9ECFEF0BEEFFFF000EF00F0C9
:020000040020DA
:08000000FFFFFFFFFFFFFFFF00
:020000040030CA
:0E00000015137F7CF98B91FFFFC0FFE0FF40DE
:00000001FF
